:020000040800F2
:1000000000200020011600084D1600084D160008BB
:1000100000000000000000000000000000000000E0
:100020000000000000000000000000004D16000865
:100030004D160008000000004D1600084D1600087F
:100040004D1600084D1600084D1600084D16000804
:100050004D1600084D1600084D1600084D160008F4
:100060004D1600084D1600084D1600084D160008E4
:100070004D1600084D160008000000004D1600083F
:10008000000000004D160008000000000000000005
:100090004D160008000000004D1600084D1600081F
:1000A0004D1600084D1600084D1600084D160008A4
:1000B0004D1600084D1600084D1600084D16000894
:1000C00010B5064C2378002B07D1054B002B02D02E
:1000D000044800E000BF0123237010BD4C01002044
:1000E00000000000486B000808B5084B002B03D047
:1000F0000748084900E000BF07480368002B00D10B
:1001000008BD064B002BFBD09847F9E70000000024
:10011000486B00085001002048010020000000004A
:10012000164B002B00D1144B9D46402292029A1A86
:10013000924600218B460F461348144A121A03F0C8
:1001400042FC0F4B002B00D098470E4B002B00D0E9
:1001500098470020002104000D000D48002802D01F
:100160000C4800E000BF03F065FB2000290001F00F
:10017000B7FC02F0CBFFC0460000080000200020C2
:1001800000000000000000004C0100209C05002041
:100190000000000000000000704710B5041C00F0D3
:1001A00077FB201C10BD000010B5041C054B03603C
:1001B000054B54300360054B436002F0B3FA201C3A
:1001C00010BDC04640630008586300088C630008F7
:1001D00008B4024B9C46543808BC6047A90100088B
:1001E00008B4024B9C46583808BC6047A901000877
:1001F00010B5041C02F0B6FD201C10BDF7B5E121BE
:100200001E4C1F4B201C4902019302F013FA201CC4
:100210001C49543002F0EAFA0025261C301C02F07A
:1002200011FA6B46DC1C00281BD0371C5437381CD5
:1002300002F0D2FAC1B22170002D0FD101A802F054
:1002400064FE01A810492A1C02F0D6FD431C08D008
:10025000381C0E4902F0CAFA013502E00C4800F0E1
:100260006FF80B48211C00F06FF80028D6D0301C26
:100270002178543002F0A4FAD0E7C046680100208B
:100280006804002038600008456000084B600008E2
:10029000D401002010B5041CFFF786FF201C02F0DB
:1002A00061FD201C10BD08B4024B9C46543808BCAC
:1002B0006047C0469502000808B4024B9C46583877
:1002C00008BC60479502000837B50E4D0023281C76
:1002D0000221032202F05EF90B4C281C221C0B4960
:1002E00002F04AFD00230A4D0093281C01332A2105
:1002F0002B2200F011F8281C0649221C02F03CFDBC
:1003000037BDC04668010020C0000020A9010008D8
:10031000D40100209B0100081FB5041C06A800782A
:1003200040B20090402001900290201C00F040FA62
:10033000E121201C490200F0F7F8201C04B010BD98
:1003400008B500F0D4F908BD08B500F0D9F9431E8E
:100350009841C0B208BD0122524210B5C262021CCF
:1003600000233032041C01608360C3600361436179
:1003700083621370081C02F00AFD6060201C10BD2F
:1003800010B5041C4068002801D002F0FCFC201CC1
:1003900010BD00697047002303618360C36070472C
:1003A00008B54369011C002B04D10368002B06D05B
:1003B000984704E00068002801D00431984708BD40
:1003C000C26A08B5031C511C1CD0011C30310878CE
:1003D000042817D8196905F0F5F8030A130D100061
:1003E00091420FDD181C1430FFF7DAFF0AE091424A
:1003F00008DAF7E7914205DBF4E7914202DCF1E726
:100400009142EFD008BDF8B5041C0E1C171C002546
:10041000BD4216DA2369002B13DDA36822689342DC
:1004200001D10023A360A368201C5A1CA26062684B
:10043000D35C735523690135013B2361FFF7C0FF8E
:10044000E6E7281CF8BD08B50369002B11D08368C6
:100450000268934201D10023836083685A1C826042
:100460004268D35C0B700369013B0361FFF7A8FF8F
:100470000123181C08BDF8B5041C0E1C171C002510
:10048000BD4216DA236822699A4212DAE2689A4279
:1004900001D10023E360E36861685A1CE260725D89
:1004A000201CCA542369013501332361FFF788FFFB
:1004B000E6E7281CF8BD10B50268046900239442E1
:1004C0000FD0C368934201D10023C360C3685A1C94
:1004D000C2604268D154036901330361FFF770FFC2
:1004E0000123181C10BD10B518C96210E10701D511
:1004F0008158CB588018984710BD000038B5051CAE
:10050000C03002F069F9041C281CE1B23830FFF752
:10051000D2FF012804D0E2B20248111C03F032FFDE
:1005200038BDC0460861000808B56C3002F082F89A
:1005300008BD0000F7B50E1C08A9051C0978043099
:10054000002A01D1DC070ED5002E0CD018244C4314
:10055000271C2037EF192C192662BB60044B7A60E8
:100560006363012200E0002201F07CFEF7BDC0467B
:10057000E7040008F0B5041C251C161C0F1C85B0F0
:10058000191C0A9A00F06CF80C4B6C350833321CBD
:100590002360391C281C002301F0FCFF084B02AA31
:1005A000191C41C941C200220092281C211C029A38
:1005B0005B68FFF7BFFF201C05B0F0BD3861000885
:1005C00000610008F0B5041C87B0261D301CFFF741
:1005D000E0FE002826D0251C6C35281C02F038F8D7
:1005E00000281FD00F276F44301C391CFFF72BFF4A
:1005F0000128EAD10021281C0A1C02F02FF8201C37
:100600003978C03002F0DCF8074B04AA191C41C944
:1006100041C2002200921A68281C211C5B68FFF767
:1006200089FFD2E707B0F0BD0061000810B5041CD7
:10063000054B083303606C30FFF7B6FD201C00F05B
:1006400021F8201C10BDC0463861000808B50430F0
:10065000FFF7A1FE08BD08B53830FFF79CFE08BDC6
:1006600038B5041C064B151C083308C0FFF773FE91
:10067000201C291C3830FFF76EFE201C38BDC046F8
:100680005061000810B5041C054B08330360383076
:10069000FFF776FE201DFFF773FE201C10BDC0463D
:1006A00050610008D343F0B5141C061C002785B028
:1006B000DB1703911C40039B351DD919E21B281C35
:1006C000FFF7D9FE336801909B68301C9847281CBF
:1006D000FFF75FFE0290281CFFF75DFE019B029A68
:1006E0009B1AFF18A742E6DB201C05B0F0BD07B53A
:1006F0006B46D9710733191C0122FFF7D3FF0EBDDA
:1007000008B538300122FFF77EFE08BD10B518C9C4
:100710006210E10701D58158CB588018984710BD69
:10072000F7B5041C261D301CFFF733FE00282FD020
:10073000271C6C37381C01F08BFF002828D0231CA5
:10074000F0339A685D681268154021D16B46301C01
:10075000D91DFFF778FE061E012EE3D12A1C381C96
:10076000291C01F07BFF6B46201CD979C03002F0B8
:1007700027F8231C0C22201C8C335A60054A1C606D
:100780005A619E607030291C321C01F06BFDC9E774
:10079000F7BDC0460D070008031CD8331A78002A9D
:1007A00005D1DC3002694168116001221A7070477E
:1007B000F0B50025041C87B002930CAB5D570E9B6F
:1007C000271C00930D9BFFF7D5FE2B4B002608330B
:1007D0002360231CDC37D8331E70311C1422381CD4
:1007E00003F0F1F8381C0299143702F049F814228A
:1007F000311C381C03F0E7F8381C291C02F030F8D3
:10080000201CFFF7C9FF0E9805F0A0FB1B4A1C4BEC
:100810000290039105F0CAF8049005910E980A38E9
:1008200005F094FB049A059B061C0F1C04F090FF36
:10083000002801D1049E059F391C251C301C05F0A1
:100840004FFBFC35A8600D4A0E4B0298039905F04A
:10085000ADF805F045FB231C01226833E8606066B3
:100860001A70094B201C236500236365074BE46461
:10087000236607B0F0BDC0466861000833333333E8
:100880003333EB3F3333D33F990700080D0700089C
:1008900010B5041C034B08330360FFF7C7FE201C90
:1008A00010BDC04668610008031CD8331A78002ABE
:1008B00005D0DC30C2684168116000221A707047B0
:1008C00070B5051CC0302E1C01F086FF3836041CA4
:1008D000C1B2301CFFF7EFFD012804D0E2B2084896
:1008E000111C03F04FFD301CFFF753FD2B1CFC3394
:1008F0009B68984202DD281CFFF7D6FF70BDC046FA
:100900000861000810B5041CFFF7A5FE201CFFF7C6
:1009100043FF10BDF0B55F46444656464D46F0B421
:100920008C46096883B000220023794F884604E092
:1009300001330232102B00D18CE001249C4045464B
:100940002540A542F4D161464C681026211CB143D4
:10095000022900D185E00139012900D899E003215D
:100960009140C9438B460668311C5E46314089463A
:10097000032121404E46914031430160C1685E46EB
:100980000E406146B3468E685946964031438026F4
:100990007605C1603442CBD05E4E716B0126314387
:1009A0005C4E716399085C4E89008E19B16801969E
:1009B00003261E408A46B6000F21B140B146564676
:1009C0008E43A021B246C905884200D18DE0534E26
:1009D000B04200D18CE052490226884209D05149E8
:1009E000884200D189E0504EB3460626584500D1D2
:1009F00088E0311C4E46B14089464E4651460E4372
:100A000001998E603E68E943B146E60369D44E46DB
:100A10000E40B1464E463E607E68B146A6035CD4A9
:100A20004E460E40B1464E467E60BE68B146E60276
:100A300046D44E460E40B1464E46BE60FE68B146B4
:100A4000A60246D44D460D40FD6001330232102B04
:100A500000D072E703B03CBC90469946A246AB4634
:100A6000F0BDD908890041180E6A01910721B346EB
:100A70000E1C1E40B6000F21B140B1465E468E43AB
:100A8000B346664631694E46B1405E460E43019913
:100A90000E62032186689140C9430E40B146664606
:100AA0008B46F1684E4691400E43866041680E1CAD
:100AB000102121400909AE4399400E43466052E798
:100AC0004E462E43B1464E46BE60FE68B146A60273
:100AD000B8D549460D43FD60B7E74E462E43B146B3
:100AE000A1E74E462E43B14694E70021894684E7AC
:100AF0004E460121B14089467FE7494603268E4094
:100B0000B1467AE705210E1C49468E40B14674E78E
:100B100000040140001002400000014000040050A9
:100B200000080050000C0050001C0050F8B503688D
:100B30004F464646C0B4041CD8074BD5BC4A0C21CE
:100B4000D0680840082800D103E1D06801400C2992
:100B500000D1FAE0B64FB74B3A68802613403B60AD
:100B60003A68B54BB60213403B6001F05BFA804631
:100B700006E001F057FA4146431A322B00D9F3E060
:100B80003B68AB4D3342F4D12A68AA4B13402B602B
:100B9000636880225202934200D1CEE1A021C902B3
:100BA0008B4200D1E2E12968A34A0A402A60002B67
:100BB00000D0C9E101F036FA8026071CB60205E034
:100BC00001F030FAC31B322B00D9CDE02B68334241
:100BD000F6D123689A072CD5954A0C21D068084095
:100BE000042800D16BE1D06801400C2900D162E1FA
:100BF000E3688F4E002B00D1E3E0326809218A437D
:100C00001343336001F00EFA0425071C05E001F0E0
:100C100009FAC31B642B00D9A6E03368844A1D423D
:100C2000F5D0236950681902844B03400B4353608D
:100C30002368DD065DD4180717D561697C4E00294D
:100C400000D1ABE0326D01231343336501F0EAF9C3
:100C50000225071C05E001F0E5F9C31B642B00D950
:100C600082E0336D1D42F6D023689A061ED5A36933
:100C70006F4E002B00D133E1B26801231A43B260FA
:100C8000726B6F49134373636E4B02251A6A0A43F2
:100C90001A6201F0C7F9071C04E001F0C3F9C31B95
:100CA000642B61D8B3681D42F7D023685D0700D577
:100CB0009AE0A36A002B1AD05D4D0C21EA680A4025
:100CC0000C2A4FD02A68022B00D158E15E4B8024B9
:100CD00013402B6001F0A6F9A404061C04E001F007
:100CE000A1F9831B642B3FD82B682342F7D1002046
:100CF0003BE04F4D0C21EA6811423AD0E0692A6886
:100D0000002800D105E180235B0013432B6001F034
:100D100089F98026071CB60004E001F083F9C31BA3
:100D2000642B21D82B68424A3342F6D05168474B96
:100D30000B40616A0B4353605368256A1B02290606
:100D40001B0A0B435360236875E7D268D10300D4B4
:100D500000E7374A1268950300D43BE76068002833
:100D600000D037E7012000E003200CBC90469946F4
:100D7000F8BD2A68900502D5E1690129F2D12C4A13
:100D800032495068656A0140294351605168256ABB
:100D900009022806090A014351604CE7336D01221C
:100DA0009343336501F03EF90225071C04E001F08E
:100DB00039F9C31B642BD7D8336D1D42F7D1236893
:100DC00053E7336809229343336001F02BF904257C
:100DD000071C04E001F026F9C31B642BC4D8336858
:100DE0001D42F7D1236824E7114B8022996B5205ED
:100DF0000A43174E9A63336880256D002B43336096
:100E000001F010F9071C04E001F00CF9C31B642B7E
:100E1000AAD833682B42F7D0054E0E4B326D802591
:100E20001340336501F0FEF8AD0080460A4F1CE028
:100E300000100240FFFFFEFFFFFFFBFFFFE0FFFF90
:100E40000120000000000140FFFFFFFEFF1FFFFF29
:100E500000700040FFFEFFFF8813000001F0E2F881
:100E60004146431ABB4200D97EE7794A336D914629
:100E70002B42F3D1A36880225200934200D1D2E0EA
:100E8000002B00D0AFE04846026D724B8025134026
:100E9000036501F0C7F87049071C4E46AD0088464F
:100EA00005E001F0BFF8C31B434500D95CE7336D93
:100EB0002B42F6D1FDE6D268D50300D598E6644A08
:100EC0001268500703D5E168012900D04AE721697B
:100ED0005F4A080255686149294001435160A8E60C
:100EE000B36801229343B3605D4B5E4A196A0225E1
:100EF0000A401A6201F096F8071C05E001F092F82A
:100F0000C31B642B00D92FE7B3681D42F6D12368B9
:100F1000CCE6504B802613402B6001F083F8B600DE
:100F2000071C05E001F07EF8C31B642B00D91BE70A
:100F30002B683342F6D123687DE629684A4A0A4085
:100F40002A602A6813432B6001F06CF88025071C87
:100F50003F4EAD0205E001F065F8C31B322B00D90E
:100F600002E733682B42F6D0236833E629688023F2
:100F7000DB020B432B602B681A432A60E4E73B4BF0
:100F8000802713402B6001F04DF8BF04804606E037
:100F900001F048F84246831A642B00D9E4E62B6836
:100FA0002B4E3B42F4D1236B626BF1681A43E36A28
:100FB00080241A432E4BA4040B401343F360326881
:100FC00080235B041343336001F02CF8051C05E01B
:100FD00001F028F8431B642B00D9C5E6336823428F
:100FE000F6D00020C1E6A021C9008B4220D048469F
:100FF000026D184B13400365026D1E4B13400365D1
:1010000001F010F880258046114EAD00124F06E029
:1010100001F008F84146431ABB4200D9A4E6336DFB
:101020002B42F5D045E64D462A6D13432B65E7E785
:101030004B46196D074B4D460B402B65296D8023A0
:10104000DB000B432B652B6D1A432A65D8E7C0469E
:1010500000100240FFFEFFFF88130000FFE0FFFFCB
:1010600000000140FEDFFFFFFFFFFBFFFFFFFFFE71
:10107000FFFF02FFFFFBFFFFF8B5884B0C1C196850
:101080004F4646460122C0B4051C1140A1420CD275
:1010900019689143214319601B681A40A2425CD031
:1010A00001200CBC90469946F8BD03689A0706D506
:1010B0007B4AF020D1688143A8680143D160D907F9
:1010C00028D5774A6B681268022B7DD0002B7ED121
:1010D0009105E5D5724F0321FA68B8468A43134358
:1010E000FB6000F09FFF6B68061C0C27022B00D1F1
:1010F00086E0032B00D191E0002B6ED1694989462F
:1011000004E000F08FFF801B484577D84246D36843
:101110001F42F6D1614B01221968914321431960A6
:101120001B681A40A242BBD12B68580706D55C4AFF
:101130005D49D0680140E8680143D160190707D5CF
:10114000574B2969D868594AC90002400A43DA60F6
:10115000032000F0F7FA0020A3E70368980706D5FC
:101160004F4AF020D1688143A8680143D160D90774
:10117000DBD54B4A6B681268022B5DD0002B3AD04E
:10118000032B00D185E0510700D489E7444F0321A8
:10119000FA680C268A431343FB6000F043FF6B6838
:1011A000041C022B4FD0032B66D0002B58D03D4897
:1011B000804604E000F036FF001B40451ED8FB6867
:1011C0003340042BF6D1AFE7900383D468E7032BB9
:1011D00035D0510700D57DE762E7324B994604E0F0
:1011E00000F020FF801B484508D84046C3683B40BC
:1011F000042BF5D18EE79105C8D451E7032050E7C1
:10120000284A914604E000F00DFF801B4845F5D8C0
:101210004046C3683B40082BF5D17BE7214989460E
:1012200004E000F0FFFE801B4845E7D84246D36843
:101230003B400C2BF5D16DE79003A7D430E790012C
:1012400000D547E72CE7174A904604E000F0EAFE95
:10125000001B4045D2D8FB683340082BF6D163E72A
:101260001049884604E000F0DDFE001B4045C5D86B
:10127000FB681E42F7D157E70A4B984604E000F09E
:10128000D1FE001B4045B9D8FB6833400C2BF6D18A
:101290004AE7900100D579E702E7C0460020024006
:1012A0000010024088130000FFF8FFFFFFC7FFFF98
:1012B0001D4B0C215868DA68000410B5400F0A4035
:1012C000042A20D019D9082A15D00C2A15D1DA6899
:1012D0001648D9689202120F805C0902DA68890FF9
:1012E0000131D40316D41B68DA0618D504F074F95A
:1012F0000F4B584300E00F4810BD802301301B0204
:101300008340181CF8E71B68DA0601D50848F3E7A4
:101310000948F1E7074B584304F05EF9ECE7064B48
:10132000584304F059F9E7E70010024090610008C3
:1013300000093D0000127A000024F40008B5FFF710
:10134000B7FF054B054ADB681B061B0FD35CD84073
:10135000034B186008BDC0460010024080610008C1
:10136000C400002008B5FFF7E9FF044B044ADB681E
:101370005B055B0FD35CD84008BDC046001002403F
:101380008061000808B5FFF7D9FF044B044ADB6809
:101390009B045B0FD35CD84008BDC04600100240E0
:1013A0008061000808B500F001F808BD1D4A08B5C5
:1013B000D3680C210B40042B2DD01FD9082B12D041
:1013C0000C2B25D1D368D1689B0217480902D2683B
:1013D0001B0F890FC35C0131D0031ED4134858433F
:1013E00004F0FAF800E012480E4B124ADB681B06C4
:1013F0001B0FD35CD840104B186008BD002B07D1E1
:1014000053681B045B0F8020013300029840EBE718
:10141000044B5B68F5E70548E6E70548584304F0E8
:10142000DBF8E1E700100240AC6100080024F400A2
:1014300000127A009C610008C400002000B5214B16
:1014400095B01A68510736D4996B802252050A4329
:101450009A631D4B1D4A19680A40802109010A43FD
:101460001A6023230693002828D0A023DB020793C9
:101470000023099301230C930223109380235B0222
:101480001193C0231B0312938023DB0306A813933D
:10149000FFF74CFB00280ED10F2301930390032389
:1014A00004900590012101A80293FFF7E5FD434256
:1014B0005841C0B200E0002015B000BD80235B029F
:1014C0000793D5E70010024000700040FFE7FFFFE0
:1014D0001B4B8022996B52050A4300B59A63194B46
:1014E000194A196895B00A40802109010A431A6017
:1014F000232306930023079311938023DB02012209
:1015000012938023DB0309920C9206A80222139304
:101510001092FFF70BFB031C0020002B0DD10F23B3
:1015200001930390032304900590012101A80293E5
:10153000FFF7A2FD43425841C0B215B000BDC046FE
:101540000010024000700040FFE7FFFF08B50120D7
:10155000FFF774FF002800D008BDFFF76FFF0028D9
:10156000FAD1FFF7B5FF0028F6D1FEE710B5174C0A
:10157000802322685B0013432360E268144B13400E
:10158000E3602268134B13402360A3680122934356
:10159000A3602268104B13402360E2680F4B134096
:1015A000E3600023236180220D4B12059A600D4AEF
:1015B0000D4B1A6000F01EFDFFF7C8FF626A04239E
:1015C0001A436262626A9A43626210BD001002406E
:1015D0000C40FF88F6FFF6FEFFFFFBFFFFFF02FF58
:1015E00000ED00E000127A00C400002008B572B6D9
:1015F000962001F0E7F9962001F0E4F9F8E7C046FB
:101600000C488546002103E00B4B5B5843500431E6
:101610000A480B4B42189A42F6D30A4A02E00023CA
:1016200013600432084B9A42F9D3FFF79FFFFEF78D
:1016300077FDFEE7002000207C6B0008C000002042
:101640004C0100204C0100209C050020FEE700001A
:101650000D4B30B59C689D688023221C1B059D4264
:1016600003D010308000815030BD00238025AD05AF
:101670005A191D5904331560C02BF7D18022024B33
:1016800092059A60EDE7C04600ED00E0F8B5254B05
:10169000254C5D6A1A692360D00706D502225242A2
:1016A0001A61224B1A6801321A601E4A1169131C12
:1016B000880713D503235B421D4E13613388002B2B
:1016C00027D11C4F3B68002B1FD01B48ADB200F048
:1016D00057FE35803B68013B3B6023681A69510720
:1016E00009D505225242154E1A615D6A3368EA1A1D
:1016F000134B9A4200D8F8BD00F08CFCFA20236806
:1017000080002A189A633560F5E701F047F92368ED
:10171000E4E7308880B200F033FE00233380236892
:10172000DCE7C04600080140D40400204404002047
:101730000404002048040020FFFF0000E002002015
:10174000E703000038B5224B04255A6B2A435A633D
:101750005A6A2A435A625A6AAA435A62FFF726FE15
:101760001C4C1D4B1D49236001235B42E3601C4B55
:10177000186803F031FF013800236060201C2361EA
:10178000A36000F001FC201C002100F021FC201CC3
:10179000042100F01DFC236812495A6A14200A60D3
:1017A000FA21890052189A630F49FFF751FF0F4B36
:1017B000802252031A6023680122D968201C0A4340
:1017C000DA60DA681543DD6000F0F6FB002038BD12
:1017D00000100240D40400200008014040420F00E5
:1017E000C4000020E00200208D16000800E100E0A7
:1017F000036870B51B6900210122041C9847051C71
:10180000431C0DD0236800211B690222201C98472D
:101810002368061C1B69201C291C00229847301CC9
:1018200070BDC046094B10B508330360084B00215A
:101830005A1CFF3202E00433934206D01C688442F3
:10184000F9D1196004339342F8D110BDD06100087A
:10185000E40200200C4B10B5083303600B4B041C52
:101860005A1CFF32002102E00433934206D018686C
:101870008442F9D1196004339342F8D1201C01F05D
:1018800071FA201C10BDC046D0610008E40200209F
:1018900008B503480221032200F048FC08BDC046F9
:1018A0007C050020F0B5474680B40E1C82B0344958
:1018B000051C03F03FF8041E08D1324B1B68002BB7
:1018C0000FD0201C02B004BC9046F0BD281C2E494D
:1018D00003F030F8002807D12A4B01241B68002BA5
:1018E000EFD1FFF7D5FFECE7281C284903F022F8D9
:1018F000002824D0264F00243B1C03E0013404338D
:10190000402C22D01A68002AF8D12B783A2B2FD0FD
:101910006846291C00F0C8FD684600F01DFE00283E
:1019200013D0684600F0FCFD002811D0684600F096
:1019300003FE002809D0A300F8500334C1E7114B7F
:1019400002241B68002BBCD1CBE701246442B8E71A
:10195000684600F0D7FD051EF7D0036868469A6810
:10196000904600F0CDFD321C011C281CC047E0E76A
:10197000281C08496A4602F067FF0098D9E7C0466C
:10198000B8610008E8030020C8610008C0610008D1
:10199000E40200200062000808B5002302280ADDE6
:1019A0000338074A810088588B50002805D0036807
:1019B0005B689847031C181C08BD01235B42FAE7CB
:1019C000E4020020F8B50C1C171C022812DC104B96
:1019D0001B68002B01D1FFF75BFF002F08D00D4DD6
:1019E000E6192178281C013400F0A8FCB442F8D193
:1019F000381CF8BD0338084B8000C058002803D0BD
:101A000003681B689847F4E701204042F1E7C046AD
:101A1000E80300207C050020E402002010B50C1C27
:101A2000022809DC0C4B1B68002B0FD00B4800F080
:101A300077FC2070012010BD0338094B8000C0588E
:101A4000002806D003689B689847F4E7FFF720FF5B
:101A5000ECE701204042EEE7E80300207C0500208F
:101A6000E402002008B5031C0120022B08DD033B23
:101A7000054A9B009858002803D00368DB68984704
:101A800008BD01204042FBE7E402002008B5031C2A
:101A90000020022B08DD033B05489B001858002856
:101AA00003D003681B69984708BD01204042FBE74B
:101AB000E402002008B5022804D880239B014B6073
:101AC000002008BD01F01CFB0923036001204042F7
:101AD000F7E7C04608B5012001F018FB7047C04683
:101AE00008B5FFF75FFCFFF7F9FFFEF787FB08BDBE
:101AF000074A13681818EFF30881884202D2106071
:101B0000181C7047034B0C2201201A604042F8E772
:101B1000C80000209805002038B5084C051C236833
:101B2000986801F021FC2368D86801F01DFC002DA5
:101B300000D1FEE7FFF75AFDFBE7C0463001002069
:101B400008B5002102F085FD08BDC04608B501F0CA
:101B50004DFC08BD7047C04638B5051CAA68296908
:101B6000046811436A69C369114320685E4A1943D6
:101B700002400A43226061685C4A0A40E9680A43FD
:101B80006260296AAA69A0681143594A02400A435F
:101B9000A260584A944238D0574A94423DD057499F
:101BA00000228C4245D0802109028B420CD0082AA9
:101BB00009D8534B92009B589F46802069680002C9
:101BC00003F00AFDE06038BD082A74D84D4B92003E
:101BD0009B589F46FFF7C6FB696803F0FDFCE06079
:101BE000F1E7FFF7CFFB696803F0F6FCE060EAE796
:101BF0006968454803F0F0FCE060E4E7FFF758FB54
:101C0000696803F0E9FCE060DDE7404A0321D26C3B
:101C100011403F4A89008A58C5E73C4A0C21D26CE2
:101C20001140043900220829BDD83A4A89008A584F
:101C3000B9E7364BC022DB6C120180211340090149
:101C40008B4243D0934247D08022D200934235D07A
:101C5000FFF788FB6968000203F0BEFCE060B2E7B2
:101C600080204002696803F0B7FC80B20F22131C89
:101C700003405B1090430343E360A4E7FFF772FB6C
:101C80004000696803F0A8FC2C6880B2EEE7FFF71B
:101C900079FBF5E72048696803F09EFC80B2E5E730
:101CA000FFF706FB6968400003F096FCE0602C68D3
:101CB0000023E36087E70023E36084E7FFF7F8FA97
:101CC0006968000203F088FCE0607CE769681348FB
:101CD00003F082FCE06076E780206968000403F08E
:101CE0007BFCE0606FE7C046F369FFEFFFCFFFFFCB
:101CF000FFF4FFFF0038014000440040004800406E
:101D000010620008346200080024F4000010024051
:101D10007C620008586200080048E801000024F4D2
:101D2000436A30B5DA0706D502682849546821406D
:101D3000846A214351609A0706D502682449546891
:101D40002140C46A214351605A0706D502682149DF
:101D500054682140046B214351601A0706D502687C
:101D60001D4954682140446B21435160DA0606D571
:101D700002681A4994682140846B214391609A0655
:101D800006D50268164994682140C46B21439160CE
:101D90005A060AD50268134C5568016C2C400C4356
:101DA000546080246403A14209D01A0606D5036852
:101DB0000D4A59680A40816C0A435A6030BD546824
:101DC0000A492140446C21435160EEE7FFFFFDFFCB
:101DD000FFFFFEFFFFFFFBFFFF7FFFFFFFEFFFFFA8
:101DE000FFDFFFFFFFFFEFFFFFFFF7FFFFFF9FFF9B
:101DF000F0B5474680B490461D1C061C0C1C00F034
:101E000011F94346071C002B12D1326801E06B1C0C
:101E100017D1D3692340A342F9D1002004BC9046D6
:101E2000F0BD002D15D000F0FDF8C01B85420FD38A
:101E3000326801E06B1CF4D1D3692340A342F9D08E
:101E4000EBE7002D05D000F0EDF8C01B8542DCD299
:101E50003268136880218B431360136820218B4301
:101E600013601168064B03200B4013609168012337
:101E7000994391606922B35400226823F254CDE75C
:101E8000FFFEFFFF036810B51A68041C11070BD48E
:101E90001B685A0712D400236822A354E366012268
:101EA0006923E254002010BD8021890300220A4BDF
:101EB000FFF79EFF00280CD00320F4E78021201CB0
:101EC000C9030022044BFFF793FF0028E3D003204F
:101ED000E9E72368DCE7C046F055000010B5041EB2
:101EE00029D06923C35C002B1ED002226923E2544F
:101EF000236801211A68201C8A431A60FFF72CFE10
:101F0000636A002B13D123680C4A5968201C0A40CD
:101F10005A609A682A218A439A60196801220A4302
:101F20001A60FFF7AFFF10BDFFF714FEDDE7201CBE
:101F3000FFF7F6FEE7E70120F5E7C046FFB7FFFF32
:101F400080220368D20590420DD00B4A90420AD0FD
:101F50000A4A904207D003608A680B68C2628362B3
:101F6000012343617047702293434A681343044A34
:101F70001340CA681343EEE7000801400014014013
:101F8000FFFCFFFF7047C04638B5041E11D0352353
:101F9000C35C002B0AD002233525211C635501C9DF
:101FA000FFF7CEFF01236355002038BDFFF7EAFF9E
:101FB000F1E70120F9E7C04610B501683523022298
:101FC000C2540C68012214430C60C254002010BD9E
:101FD00001220368101C8840011C186A884318629B
:101FE000186A01431962196800200A431A60704791
:101FF0007047C04608B5064B02211A6803208A4381
:102000001A60FFF79FFBFFF7F3FF002008BDC046F3
:1020100000200240024B1A6801321A607047C04625
:10202000E4030020014B18687047C046E403002019
:1020300008B50268184B19491A608A4224D0826890
:102040005A60C168026999604169DA6000229A6148
:10205000196119228256013213D018228256013298
:1020600016D00C225A6110225A6280225201181C8A
:102070009A63FFF733FF002802D0094800F0DEFB27
:1020800008BD08225A61EEE781684A085A60D8E71D
:1020900004225A61E7E7C0460C05002000480040D2
:1020A0008C620008F0B5124E8D00124C735983B04B
:1020B0002060002B06D0C269402717420DD1C369AA
:1020C0009A0601D403B0F0BD0B4B70591B68002178
:1020D000984723685B6A0193F4E7074A181C126863
:1020E0000121904720680762C3699A06EAD5EBE7A9
:1020F000EC0300200C0500200004002008B5024875
:102100000021FFF7CFFF08BD0038014008B50248A5
:102110000121FFF7C7FF08BD0044004008B5024891
:102120000221FFF7BFFF08BD00480040F8B5151CAD
:10213000394A4F464646C0B4041C0E1C081C111CEC
:10214000904600F0EDFB354F8146391C281C00F00D
:10215000E7FB011C484600F0D1FB2060431C53D034
:102160002F4B98423ED02F4B984232D02E4B984264
:1021700007D12E4B8022996BD2020A439A63022325
:102180006360301C414600F09DFB281C391C00F0A8
:1021900099FB721C03D0301C012100F0F1FC6B1C78
:1021A00003D0281C012100F0EBFC96239B01A360C7
:1021B0000023E3602361636126766576201CFFF7C8
:1021C00037FF184B22689A4215D00CBC90469946AE
:1021D000F8BD164B8022996B92020A439A63012341
:1021E0006360CEE7114B8022596BD2010A435A63D8
:1021F00000236360C5E70E4B01221A60211C1C22DC
:102200000C4801F0C3FBE0E70B480C495B2200F0EF
:1022100001FB2068A4E7C046846500082465000827
:1022200000380140004400400048004000100240D7
:10223000E80300207C050020A4620008C0620008BA
:1022400008B58160FFF7F4FE08BDC046034B196076
:102250004168034B8900CA507047C0460004002003
:10226000EC03002038B50368254803602548834205
:102270002DD02548834216D0244883423CD1244D9A
:102280001D20002A13D0002931D1196820220A43C9
:102290001A6044B2201C291CFFF7DAF901201D4BFB
:1022A000A040186038BD1C4D1C20002AEBD11A68D4
:1022B00000290FD120218A431A601B685A06F1D4E5
:1022C00001238340134A181C8023D050EAE7134DA2
:1022D0001B20D6E740218A431A601B689A06E1D486
:1022E000012383400B4A181C8023D050DAE7196879
:1022F00040220A431A60CCE700250020C1E7C0460F
:102300000C05002000380140004400400048004017
:102310001D21000800E100E00D210008FD2000085B
:1023200002682021D3691942FCD0034BFF201A60B8
:10233000536A18407047C0460C0500200268802090
:10234000D3691842FCD0034B1A60FF2319409162F5
:102350007047C0460C0500200368034AD869136023
:102360008006C00F7047C0460C0500200368034A72
:10237000D86913600006C00F7047C0460C050020E6
:10238000044B054A13605863D96802220A43DA6095
:102390007047C046000801400804002008B5054BFE
:1023A0001A68002A04D1012200201A60FFF7CAF936
:1023B00008BDC046400400200C4B10B51A68002A26
:1023C00004D1012200201A60FFF7BCF90849094C2A
:1023D0000B68626A1B049B1800E0031C0868626AB1
:1023E000000480188342F8D210BDC046400400208B
:1023F000440400200008014038B5041CFFF7DCFF4E
:10240000174B201A596A8CB2002826DD154A05148C
:102410001560154A80B21080090414481588090C0B
:10242000411A8D420CDD12490B605863D8680221B5
:102430000143D96013880133E418A4B2148038BD75
:1024400011880B486418A4B203605C63D868022149
:102450000143D96000231380F1E700F09FFAEEE713
:10246000000801404804002004040020FFFF000091
:1024700008040020034B044A02211360DA688A43EF
:10248000DA6070470008014008040020044B054A48
:1024900013601A69910702D5032252421A617047EC
:1024A000000801400804002038B5002303604360A1
:1024B0000B78041C2F2B01D0201C38BD4B78002B2F
:1024C000FAD0481C20604B782F2B14D0002B15D04D
:1024D000031C01E0002A0CD05D1A013323601A7836
:1024E0002F2AF7D1291C0133236000F007FC60601C
:1024F000E2E7291CF9E7031C0021F4E70021F4E7D7
:102500000068704710B5041C4068002805D000F032
:1025100015FC012801D1606810BD0020FCE7C04611
:10252000406808B5002805D000F008FC4342584137
:10253000C0B208BD0020FCE710B5041C40680028AC
:1025400008D000F0FBFB002804D16068002801D00F
:10255000043810BD0020FCE74068431E9841C0B21B
:102560007047C04608B500F091F808BD08B4024BAA
:102570009C46543808BC60476525000808B500F043
:102580008BF808BD08B4024B9C46543808BC604721
:102590007D25000838B5041C1D1C00F027F8201C00
:1025A000291C543000F0EAF8054B201C1A1C083294
:1025B00022601A1C203254336265A36538BDC046C0
:1025C0003863000808B54B005918C900203141187C
:1025D0004B69002B05D00868002801D004319847CA
:1025E00008BD0B68002BFBD09847F9E738B50F4BB7
:1025F000051D0360002343608360C3600361436182
:10260000836103774377036243638363C3649623E1
:102610009B01041C0365281CFFF788FD281C044946
:10262000221CFFF713FE201C38BDC0463063000893
:10263000C525000838B50D1C041C0430FFF700FE4A
:10264000256538BD08B50430FFF786FE08BDC046D5
:1026500008B50430FFF78AFE08BDC04608B500295A
:102660000DD053009B18DB002033C31819600021E4
:1026700059610430111C0122FFF7F4FD08BD111C43
:1026800004300022FFF7EEFDF8E7C04608B504303D
:10269000FFF746FE08BDC04610B504300C1CFFF71E
:1026A0004DFE201C10BDC04600207047F8B58E18A6
:1026B000051C0F1EB74210D00C1C01E0A6420AD028
:1026C00001342B68621E11785B6A281C9847013020
:1026D000F4D1E01BF8BDF01BFCE70020FAE7C04690
:1026E000F8B58E18051C0F1EB74210D00C1C04E064
:1026F0000134631E1870A64207D02B68281C9B6A01
:102700009847431CF4D1E01BF8BDF01BFCE7002008
:10271000FAE7C0460020704700207047002070474D
:1027200000207047074B10B51A1C08323C33041CBC
:1027300002604360406900F057FD201C00F046FA3B
:10274000201C10BD9863000808B4024B9C46043856
:1027500008BC60472527000810B5041CFFF7E2FFFE
:10276000201C00F0FFFA201C10BDC04608B4024B2C
:102770009C46043808BC60475927000810B584B04F
:10278000041C00F05BFA0B4B01A81A1C3C3363607D
:1027900008320023636122600749221C02F032F8EC
:1027A000064901A800F01EFF6061FFF7C9F9201C6F
:1027B00004B010BD9863000800620008E0630008E0
:1027C00038B50D1C041C406900F0CEFD281C616961
:1027D00000F04AFF38BDC04610B5041C406900F047
:1027E000C3FD6069FFF7B2F910BDC0460EB410B565
:1027F00083B005AB04CB041C4069019300F0B4FD29
:1028000060690599019A01F0BDFA03B010BC08BCDB
:1028100003B0184710B50B1C064982B00968041CA8
:10282000C86800920449221C00F0E8FEFEF7DEFEB4
:1028300002B010BD30010020E46300080FB400B501
:1028400083B004AA08CA054B04991B680192D86892
:1028500001F098FA012000F059FCC0463001002038
:1028600038B50D1C041C00F0CDF8013507D0201C34
:10287000002100F0E5F8201C002100F0DBF838BD55
:1028800038B50D1C041C00F0BDF801350ED0002336
:10289000E35601330BD023696268201C01211A60C2
:1028A00000F0CEF8201C002100F0C4F838BD034829
:1028B00003493522FFF7AEFFEDE7C0461864000874
:1028C0003064000810B5041C421C03D109E09C428E
:1028D00008D00C310023CB565A1CF8D10648FFF71C
:1028E000ADFF10BD201C896800F01CF9201C0021E0
:1028F00000F046F9F5E7C046A064000808B5884234
:1029000008D0431C07D0013104D00448FFF796FFDC
:102910000120404208BD081CFCE7C046B464000822
:10292000021C08B5531C03D10BE09A420AD00C31AB
:102930000023CB56581CF8D10448FFF77FFF012035
:10294000404208BD4868431CFBD1F5E7C864000855
:1029500038B50368041CDB68984763685B680DE062
:102960001D6823685B6898472D1A002D0CDC62688F
:1029700051688B6853601268002A0CD1002BEFD18C
:1029800023689B68984738BD6268236852681B6952
:1029900010689847F7E748689047DEE708B50248AF
:1029A000FFF7D6FF08BDC0461C65000838B5051CFA
:1029B000FFF702FD041CFFF7FFFC031BAB42FAD339
:1029C00038BDC04608B5FA239B005843FFF7EEFF19
:1029D00008BDC04610B5041C431C08D0201C0021B3
:1029E00000F0A0F80F2004400120A04010BD0348D3
:1029F00003492722FFF70EFFF0E7C046E465000811
:102A0000F865000870B5041C0D1C21704B1C0FD01C
:102A10000806000F00F032F8061C281CFFF7DAFF4A
:102A2000331C1033A360283608336060E3602661EE
:102A300070BDC04608B5007840B200F0A1F808BDEE
:102A400038B5041C002020560D1C431C09D0012D54
:102A500003D0002100F066F838BD012100F062F8D3
:102A6000FAE7044804494722FFF7D4FE0020205625
:102A7000EDE7C04618640008F865000800B587B0A7
:102A800007283CD8204B80001B589F461F4B8022B4
:102A9000D96A1F481143D962DB6A1A400592059B27
:102AA00007B000BD194B0122D96AA0201143D96299
:102AB000DB6AC0051A400192019BF1E7134B022229
:102AC000D96A14481143D962DB6A1A400292029B08
:102AD000E6E70E4B0422D96A0F481143D962DB6A3C
:102AE0001A400392039BDBE7084B0822D96A0B4884
:102AF0001143D962DB6A1A400492049BD0E708486C
:102B0000FFF79CFE0020CBE7606600080010024043
:102B1000001C00500004005000080050000C005041
:102B2000B466000870B5061C86B00D1C431C1BD093
:102B30000F2430092040FFF7A1FF26400123B340B6
:102B4000221C01932A400B4B9200D2586B065B0F5C
:102B5000ED1103932C40032301A9029204930594E1
:102B6000FDF7D8FE06B070BD034804496022FFF7A8
:102B700051FEDDE780660008E4650008D8660008BD
:102B800070B5041C0D1C431C15D00F231E1C2009FE
:102B900018402640FFF772FF7300022D09D9002567
:102BA000C268032199408A43C260C3681D43C5605F
:102BB00070BD9D40F4E7034803498522FFF72AFED4
:102BC000E3E7C046E4650008D8660008074B10B587
:102BD0001A1C08323433041C02604360043000F0D5
:102BE00041F8201CFEF71EFE201C10BD40670008A7
:102BF00008B4024B9C46043808BC6047CD2B000843
:102C0000094B10B51A1C08323433041C02604360AF
:102C1000043000F027F8201CFEF704FE201C00F012
:102C2000A1F8201C10BDC0464067000808B4024B44
:102C30009C46043808BC6047012C0008074B10B5BF
:102C40000022041C08C000F047F8054B201C1A1C89
:102C5000083234332260636010BDC046D86100087A
:102C6000406700080A4B826808330360002A0AD0D4
:102C7000084B1A68824201D106E01A1C536883424D
:102C8000FBD143685360704742681A60FBE7C04657
:102C900080670008540400200D4B8268083310B58B
:102CA000041C0360002A0AD00A4B1A68904201D122
:102CB0000AE01A1C53689C42FBD163685360201CD5
:102CC00000F050F8201C10BD42681A60F7E7C046BB
:102CD0008067000854040020064B816008330360BD
:102CE000002343600273002903D0034B1A68186065
:102CF0004260704780670008540400200E4B70B596
:102D00001C68061C0D1C002C03D112E06468002C0A
:102D10000FD0A0680028F9D0311C2A1C01F01BFE3E
:102D20000028F3D1A06801F00FFEA842EED1201CCC
:102D300000E0002070BDC04654040020007B7047B6
:102D400010B5041E02D1013400E08047201C00F0C1
:102D5000EFFD002805D100F009F80028F5D100F0BA
:102D6000B9F910BD08B500F0EDFD08BD014B1868BC
:102D70007047C0465804002008B5031C081C191CE5
:102D800000F0B0F908BD08B5FFF7ECFF08BD08B5C5
:102D9000FFF7D6FF08BD08B5012A02D10B780370F2
:102DA00001E000F0F3FD08BDF7B51D1C0368141C1D
:102DB0001A1C0C3A0F1C1668002D02D1B44219D906
:102DC00015E01B19B54212D8721B94420FD819781E
:102DD0003A7801330193914206D1791C6A1E181C7E
:102DE00000F0C5FD002805D00134019BECE701206F
:102DF000404200E0201CFEBD70B5061C081C151CDE
:102E00000C1C01F0A1FD2A1C031C211C301CFFF727
:102E1000CBFF70BD044B984204D0002301604118E1
:102E200083600B737047C0465C040020134A38B5BA
:102E3000041E944202D9124800F084F8884203D953
:102E40004B00984200D21C1C231C201C80251D33E3
:102E50000D306D01AB420AD98C4208D91B056419AB
:102E60001B0DE41A944200D9044C201C0D30FFF7CE
:102E700067FF00234460836038BDC046FCFFFF3F0E
:102E80003468000808B5054B984206D083685A1E7E
:102E90008260002B01DCFFF765FF08BD5C040020A9
:102EA00070B50B1C041C016850181A1C6168FFF7F0
:102EB000BDFF051C2268061C0C35002A04D0211C0D
:102EC000281C0C31FFF767FF301C2168FFF7A2FFB9
:102ED000281C70BD036837B50C3B5A68914202D17B
:102EE0009A68002A10DD1A68914200D2111C041C55
:102EF0008A1A181C01A9FFF7D3FF051C206801A935
:102F00000C38FFF7BFFF256037BD036870B50C3B79
:102F10001A68051C541C5A680E1C94420DD89B68F4
:102F2000002B0ADC2B68211C1A1C0C3A12689E54D8
:102F300028680C38FFF76EFF70BD281C211CFFF7B6
:102F4000C9FFEFE708B500F0C5F800000123244AE7
:102F50001168194200D11360224A1168194201D147
:102F6000012313600123204A1168194200D1136024
:102F70001E4A1168194201D10123136001231C4A22
:102F80001168194200D113601A4A1168194201D11F
:102F9000012313600123184A1168194200D11360FC
:102FA000164A1168194201D1012313600123144A02
:102FB0001168194200D11360124A1168194201D1F7
:102FC000012313600123104A1168194200D11360D4
:102FD0000E4A1168194201D1012313607047C0469F
:102FE0009804002094040020900400208C04002009
:102FF0008804002084040020800400207C04002039
:103000007804002074040020700400206C04002068
:103010000123244A1168194200D11360224A116821
:10302000194201D1012313600123204A116819427A
:1030300000D113601E4A1168194201D101231360A7
:1030400001231C4A1168194200D113601A4A116801
:10305000194201D1012313600123184A1168194252
:1030600000D11360164A1168194201D1012313607F
:103070000123144A1168194200D11360124A1168E1
:10308000194201D1012313600123104A116819422A
:1030900000D113600E4A1168194201D10123136057
:1030A0007047C046C8040020C4040020C0040020AB
:1030B000BC040020B8040020B4040020B0040020A8
:1030C000AC040020A8040020A4040020A0040020D8
:1030D0009C04002008B5062001F074FB0120FEF7D7
:1030E0001BFD0000054B10B5041C181E05D0131C59
:1030F00002200A1C211C00E000BF10BD00000000DF
:10310000014B18687047C04630010020084B10B5CD
:10311000041C002B02D0002100E000BF054B186802
:10312000836A002B00D09847201CFEF7F5FCC046B0
:1031300000000000A86A000870B5051C0C1E01D133
:10314000002049E0002804D08369002B01D100F061
:1031500099F9224B9C4201D16C6808E0204B9C42BB
:1031600001D1AC6803E01F4B9C4200D1EC680C22FB
:10317000A35E002BE4D0281C211C00F03FF8236B39
:10318000061C002B06D0281C216A9847002801DA6B
:1031900001267642A3891B0603D5281C216900F06D
:1031A0001BFC616B002908D0231C4433994202D0D8
:1031B000281C00F011FC00236363A16C002904D0DB
:1031C000281C00F009FC0023A36400F0CBF90023C5
:1031D000A38100F0C8F9301C70BDC046446A0008E5
:1031E000646A0008846A000808B5034B011C18686B
:1031F000FFF7A2FF08BDC04630010020F7B58A895D
:10320000051C0C1C13075ED44B68002B02DC0B6CF6
:10321000002B1ADDE76A002F17D000232E682B60E1
:1032200080235B011A4001D0626D15E0281C216AE1
:103230000123B847021C431C0ED12B68002B0BD076
:103240001D2B01D0162B02D12E6000205EE0402104
:10325000A3890B43A38159E0A3895B0706D5636863
:10326000D21A636B002B01D0236CD21A0023281CC6
:10327000216AE76AB847A389421C06D12A68002A56
:1032800003D01D2A01D0162A19D1002262602269BA
:103290002260DB0405D5431C02D12B68002B00D132
:1032A0006065616B2E600029CFD0231C44339942A6
:1032B00002D0281C00F090FB0020606326E0402232
:1032C0001343A38122E00F69002FBED00B680F606B
:1032D000DB1B01930023920700D14B69A360019B84
:1032E000002BB2DD281C216A3A1C019BA66AB0475C
:1032F000002806DC40220120A38940421343A38119
:1033000004E0019B3F181B1A0193E8E7FEBD000093
:1033100038B50B69051C0C1C002B01D100201CE0EA
:10332000002804D08369002B01D100F0ABF80B4BCF
:103330009C4201D16C6808E0094B9C4201D1AC6809
:1033400003E0084B9C4200D1EC680C22A35E002BEA
:10335000E4D0281C211CFFF751FF38BD446A000847
:10336000646A0008846A000808B5011E05D1054B8F
:103370000549186800F03CFA03E0044B1868FFF7B1
:10338000C7FF08BDA86A00081133000830010020FB
:1033900038B5051C0C1C002804D08369002B01D112
:1033A00000F070F80E4B9C4201D16C6808E00D4BA8
:1033B0009C4201D1AC6803E00B4B9C4200D1EC680D
:1033C0006368013B6360002B04DA281C211C01F0B8
:1033D000CBF803E023685A1C2260187838BDC04639
:1033E000446A0008646A0008846A000808B5034B50
:1033F000011C1868FFF7CCFF08BDC0463001002053
:1034000008B5024900F0F4F908BDC04611330008C0
:10341000002310B5041C0360436083608181436610
:10342000C281036143618361191C08225C3000F092
:10343000CAFA054B24626362044BA362044BE36245
:10344000044B236310BDC04699480008C5480008D6
:10345000FD4800082949000870B568254B1E5D43EA
:103460000E1C291C743100F0FDFA041E08D0002146
:103470002A1C016046600C30A060683200F0A3FA9C
:10348000201C70BD836913B5002B28D18364C364ED
:103490000365134B134A1B6882620193984201D162
:1034A00001238361041C00F01FF86060201C00F001
:1034B0001BF8A060201C00F017F80421E060002237
:1034C0006068FFF7A5FFA06809210122FFF7A0FFB0
:1034D000E06812210222FFF79BFF0123A36113BDC5
:1034E000A86A000801340008F8B51D4B061C1D68C9
:1034F000AB69002B02D1281CFFF7C4FF4835AC682C
:103500006B68013B05D40C22A75E002F10D06834F5
:10351000F7E72B68002B06D1301C0421FFF79CFF36
:103520002860002801D02D68E9E70C23336016E0FD
:103530000123201C5B42E3810233A381676627607D
:10354000A760676027616761A7615C30391C08224A
:1035500000F039FA201C6763A763A764E764F8BD2D
:10356000A86A000870477047F7B50F1C111C01AA24
:10357000051C01F047FC061E01D1002427E0281C91
:10358000FFF7B2FF041EF8D0DB23281C391C019A78
:103590005B0000F0E3FE002806DA0025FFF7E2FFFB
:1035A000A581FFF7E0FFE8E70A4BE08163620A4B81
:1035B000A681A362094B2462E362094B2363F305EE
:1035C00005D5281C211C0022022300F059F8201CDC
:1035D000FEBDC04699480008C5480008FD480008DF
:1035E0002949000808B5031C0A1C03490868191C6E
:1035F000FFF7BAFF08BDC046300100200EB403B586
:10360000011C03AB044804CB0068019300F0AAFA44
:1036100002B008BC03B018473001002070B5051C8B
:103620000E1C141C002804D08369002B01D1FFF765
:1036300029FF0A4B9C4201D16C6808E0084B9C4270
:1036400001D1AC6803E0074B9C4200D1EC68281C18
:10365000311C221C00F0B0FE70BDC046446A000858
:10366000646A0008846A000808B5031C0A1C034940
:103670000868191CFFF7D2FF08BDC04630010020C2
:1036800008B500F001F808BDF7B5051C0C1C019247
:103690001E1C002804D08369002B01D1FFF7F2FE25
:1036A000414B9C4201D16C6808E0404B9C4201D1E7
:1036B000AC6803E03E4B9C4200D1EC688422A389B5
:1036C00052001340934203D1281C211CFFF720FE17
:1036D000E36A0093002B01D11D3331E0012E05D0A8
:1036E000022E31D01623002E2AD12DE0281C211CB9
:1036F000FFF70EFE8023A2895B011A4001D0606DA6
:1037000006E0331C281C216A009EB047431C18D0D9
:10371000A3895A0707D56368C01A636B002B0AD0C8
:10372000236CC01A07E01B0705D52368002B02D0C5
:1037300022699B1AC018019B00261B18019303E005
:103740002B6001277F422DE02369002B03D1281C29
:10375000211C00F095F8281C211CFFF7D9FD071E3D
:10376000EFD1331C281C216A019A009EB047431CEC
:10377000E7D0616B002908D0231C4433994202D062
:10378000281C00F029F9002363630021201C236911
:10379000A2892360074B61601340A3815C3008223B
:1037A00000F011F9381CFEBD446A0008646A000884
:1037B000846A0008DFF7FFFFF7B54830041C0026D5
:1037C0000191002C12D0A5686768013F0CD4AB8929
:1037D000012B07D90E22AB5E013303D0281C019BBD
:1037E000984706436835F0E72468EAE7301CFEBDD9
:1037F000F7B5041C071C002601914834002C16D094
:103800006368A5680093009B013B00930DD4AB89CE
:10381000012B08D90E22AB5E013304D0381C291CC1
:10382000019B984706436835EDE72468E6E7301CBE
:10383000FEBD00000E4B70B500251E1C0D4CE41A99
:10384000A410A54204D0AB00F35898470135F8E71F
:1038500002F0E6FB084B00251E1C084CE41AA410DD
:10386000A54204D0AB00F35898470135F8E770BD86
:1038700034010020340100203401002044010020E4
:10388000F0B58B8991B09B0706D50B1C47330B60B5
:103890000B6101234B6145E00C1C0E23C95E061C25
:1038A000002904DA8023A5891D4010D10CE001AA6B
:1038B00001F0E0FA0028F5DBF023029D1B021D4019
:1038C000194BED186B425D418027FF0001E0002598
:1038D0004027301C391C00F0C5F800280CD1A38902
:1038E0009A051FD402221343A381231C473323606C
:1038F00023610123636115E080220C4BB362A3892D
:1039000020601343A38120616761002D0AD00E233C
:10391000E15E301C01F0C0FA002803D00122A38927
:103920001343A38111B0F0BD00E0FFFF0134000894
:1039300008B5034B011C186800F094F808BDC04698
:103940003001002008B5034B011C186800F044F852
:1039500008BDC04630010020C9B28218904204D090
:1039600003788B4202D00130F8E70020704730B571
:103970000024944208D0035D651C0C5DA34201D075
:10398000181B02E02C1CF4E7002030BD002310B50A
:10399000934203D0CC5CC4540133F9E710BD10B599
:1039A000814208D28B18984205D29B1A013A09D35A
:1039B000995C8154FAE70023934203D0CC5CC45451
:1039C0000133F9E710BD031C8218934202D019702D
:1039D0000133FAE77047000030B500293ED00439C2
:1039E0000B68002B00DAC9181D4A1368141C002B41
:1039F00002D14B60116031E099420DD208680A187B
:103A00009A4203D11368C3180B6053684B6021605E
:103A100024E08A4203D8131C5A68002AF9D11D6891
:103A20005C198C420BD109686918581819609042CA
:103A300014D110685268091819605A600EE08C425F
:103A400002D90C23036009E008680C18944203D1E2
:103A500014685268001908604A60596030BDC04659
:103A6000D0040020032370B5CC1C9C430834051CF3
:103A70000C2C01D20C2405E0002C03DA0C230020CE
:103A80002B6042E08C42F9D3204A1368101C191CA9
:103A9000002913D00A68121B0DD40B2A02D90A6020
:103AA0008B181FE08B4202D15A6802601BE04A6803
:103AB0005A600B1C17E00B1C4968E9E7144E336889
:103AC000002B03D1281C00F07FFD3060281C211C36
:103AD00000F07AFD031C421CD0D00322C61C964382
:103AE00086420AD11C60181C07210B301A1D88431E
:103AF000821A0AD05142995007E0311A281C00F06E
:103B000063FD431CBAD0331CECE770BDD004002029
:103B1000CC040020936810B5013B9360002B05DABC
:103B20009469A34208DBCBB20A2B05D01368581C5A
:103B300010601970C8B201E001F072F810BDF8B55C
:103B4000061C0F1C141CD518AC4208D02178301C60
:103B50003A1CFFF7DFFF0134431CF5D100E00020E1
:103B6000F8BD0000F0B59FB0061C0F1C0292059333
:103B7000002804D08369002B01D1FFF783FC794B27
:103B80009F4201D1776808E0774B9F4201D1B76827
:103B900003E0764B9F4200D1F768BB891B070AD52B
:103BA0003B69002B07D0002306AD6B6120336B7699
:103BB0001033AB763DE0301C391C01F09DF8002835
:103BC000F1D001204042CAE0059A111D126805910A
:103BD000002A7EDB0992013423782E2B00D189E064
:103BE000217863480322FFF7B7FE002808D0604B16
:103BF0000134C01A40238340181C2B6818432860E6
:103C00002178631C5B48062202932976FFF7A4FE05
:103C1000002800D191E0584B002B00D084E007220F
:103C2000059B07339343083305936B69039A9B18ED
:103C30006B61029C2378002B04D1029BE31A04934E
:103C400011D003E0252BF8D00134F3E7049B301C9E
:103C5000391C029AFFF773FF431C7BD06A69049BEF
:103C6000944663446B612378002B73D001220023B8
:103C700052426A6002A95432521801342B60EB6040
:103C8000AB601370AB6521783C480522FFF764FEFA
:103C9000002809D0394B0134C01A01238340181C75
:103CA0002B6818432860EEE72B68DA0604D5532208
:103CB000202102A8121811701A0704D553222B21B3
:103CC00002A81218117022782A2A00D17CE7099BD9
:103CD00005E05242EA60022213432B607BE7227820
:103CE000303A092A04D80A214B4301349B18F6E7DD
:103CF000099371E763782A2B09D1059B02341A1DB9
:103D00001B680592002B0DDA01235B420AE00023B9
:103D100001342278303A092A04D80A214B4301346D
:103D20009B18F6E707935BE705AB0093301C291C53
:103D30003A1C134B00E000BF07E005AB0093301CBA
:103D4000291C3A1C0E4B00F099F80390039B013399
:103D500000D06AE7BB895B0600D532E70B981FB03D
:103D6000F0BDC046446A0008646A0008846A00081E
:103D7000B26A0008B66A000800000000AC6A0008D9
:103D80003F3B000838B5051C0C1C131C034A291CBA
:103D90001068221CFFF7E6FE38BDC0463001002047
:103DA000F7B5171C01930A698B6800900C1C9342AD
:103DB00000DA131C221C3B6043321278002A01D027
:103DC00001333B6023689B0602D53B6802333B60AE
:103DD000062523681D401ED0231C43331B785A1E22
:103DE0009341226892061CD53020E1184031C870FA
:103DF000211C5A1C45310978A21840320233D17077
:103E00000FE0221C0123009801991932089EB04747
:103E1000431C0ED00135E3683A689B1A9D42F0DBE3
:103E2000DAE7221C009801994332089DA847431CF9
:103E300002D10120404220E006232068E1683A6870
:103E400003400025042B03D18D1AEB43DB171D40E3
:103E5000A3682269934201DD9B1AED180027AF4247
:103E60000ADA221C0123009801991A32089EB047F1
:103E7000431CDED00137F2E70020FEBDF0B58BB069
:103E800006920A1C43320793059004920A7E0C1C8A
:103E9000109B6E2A00D1A8E011D8632A22D009D83D
:103EA000002A00D1B2E0582A00D0C2E045310A70A1
:103EB0007C4A4FE0642A1DD0692A1BD0B9E0732ADE
:103EC00000D1A7E009D86F2A29D0702A00D0B0E02D
:103ED000202209680A43226037E0752A1FD0782A19
:103EE00033D0A6E00E1C1A684236111D1960136803
:103EF0003370A1E021681A68080606D4490604D583
:103F0000111D19600023D55E02E0111D19601568AE
:103F1000002D3BDA2D23049A6D42137036E02168A0
:103F20001A68080606D4490604D51568111D1960DB
:103F3000ADB202E0111D196015685A4B227E039341
:103F40000A276F2A1DD108271BE0221C7821453241
:103F50001170554A19680392081D226818600D688F
:103F6000100602D4500600D5ADB2D30702D52023E7
:103F70001A4322601027002D03D1202322689A4380
:103F80002260231C002243331A7002E00A27454BAB
:103F900003936368A360002B03DB04222168914331
:103FA0002160002D02D1049E002B0ED0049E281CFF
:103FB000391C01F097FB039B013E5B5C281C3370AE
:103FC000391C01F009FB051EF1D1082F09D1236826
:103FD000DB0706D563682269934202DC3023013E89
:103FE0003370049B9B1B23612BE009681A68080649
:103FF00007D4490605D5111D19601368A28A1A80D5
:1040000004E0111D1960136862691A600023049EA0
:10401000236116E01A68111D196016680021301C12
:104020006268FFF799FC002801D0801B606063681C
:1040300003E0261C42363270012323610023049AD8
:104040001370079B05980093211C069B09AAFFF794
:10405000A7FE431C02D10120404221E023690598BC
:104060000699321C079DA847431CF4D023689B0780
:1040700005D4099BE068984212DA181C10E000256C
:10408000E368099A9B1A9D42F3DA221C01230598E2
:1040900006991932079EB047431CDCD00135EFE783
:1040A0000BB0F0BDBD6A0008CE6A0008F7B5151C5C
:1040B0008A6801900C1C002A06D18A69511E8A4127
:1040C000012152420A43A2602268D20603D41A6830
:1040D000111D196017680026A06900281DD12368EA
:1040E0000136DB0603D42B681B783B7001372A6846
:1040F0006B6801322A60A268013B013A6B60A260E2
:10410000002A1FD0002BE7DCC0235B00E358019896
:10411000291C98470028DFD014E0012808D12B681B
:1041200062691B78D35C002BD9D1002E19D009E02D
:10413000022807D12B680B4A1B781268D3185B78CA
:104140001B07CCD510232268134006D1E268013248
:10415000E260A269002A00D03B70002023699E190A
:104160002661FEBDCC000020F0B50C1C8BB0019385
:10417000744B0490161C07AA23CB23C2724B0593E1
:10418000A369032B01D0714B05930022A36803920E
:104190005D32591EFF32914205D95E3BFF3B0393CE
:1041A0005E23FF33A360231C1C330093D02300271E
:1041B00022681B0113432360009B02933268BB00FB
:1041C000117807AA98580222FFF7C6FB002839D0B9
:1041D000012F0DD16368002B06D10833226863607C
:1041E000F933FF3313432360594B226813400DE02A
:1041F000022F0CD1C02280212368D2001A408900EE
:104200008A4222D110226260F03213432360A368F5
:104210005A1EA260002B15D0029B5D1C33685A1CED
:1042200032601B78029A029513707368013B7360C9
:10423000002B07DCC0235B00E3580498311C98472F
:10424000002844D10137032FB8D16368002B01D176
:104250000A3363601021002763686069C91A3D4B07
:10426000C91800F0C3F9029DA368002B30D0326852
:1042700060691178405C00282AD030290BD1216870
:10428000090508D5039A0137002A0BD0013A0133FA
:104290000392A36006E021682F4B0B402360137844
:1042A0002B7001357368013B7360002B03DD3368AD
:1042B0000133336007E0C0235B00E3580498311CEE
:1042C0009847002804D1A368013BA360CCE70027EE
:1042D0002368DB050ED5009B9D4207D9BE23013D17
:1042E0005B002978E3580498321C9847009B012012
:1042F0009D4225D0102223681A401AD12A70636883
:1043000004980099059EB047019B22681B6891069E
:1043100007D4D10705D501991A1D0A601B681880BA
:1043200004E001991A1D0A601B681860E3680133F4
:10433000E3600020009BED1A2369ED195D192561EA
:104340000BB0F0BDE06A000881490008A14A0008EE
:10435000FFFAFFFFEC6A0008FFF6FFFF38B5051C07
:104360000020074C2060081C111C1A1CFDF79AFA4B
:10437000431C03D12368002B00D02B6038BDC046FE
:10438000980500200FB40B4B13B51C68002C05D00A
:10439000A369002B02D1201CFFF774F805AB201C89
:1043A000A168049A0193FFF7DDFB16BC08BC04B0BA
:1043B0001847C0463001002070B5051C0E1C141CA7
:1043C000002804D08369002B01D1FFF75BF8154B5F
:1043D0009C4201D16C6808E0134B9C4201D1AC684F
:1043E00003E0124B9C4200D1EC68A368013BA36040
:1043F000002B10DAA269934207DB23681E70236842
:1044000019780A290AD1281C01E0281C311C221C19
:1044100000F006FC05E023681E7023685A1C226029
:10442000187870BD446A0008646A0008846A00084D
:10443000092208B58189031C0A400020092A02D1FB
:10444000181CFEF791FF08BDF8B5051C0C1C0028D0
:1044500004D08369002B01D1FFF714F83D4B9C4237
:1044600001D16C6808E03C4B9C4201D1AC6803E090
:104470003A4B9C4200D1EC680023A289636093B25E
:10448000990663D459071AD4D90605D409232B6099
:1044900037331A43A28159E0082633420AD0281C38
:1044A000211CFEF735FF002850D1A389A060B3433B
:1044B000A381A0610422A3891343A38112E0616B4D
:1044C00000290FD0231C4433994202D0281CFFF747
:1044D00083FA0020236C60636360834202D0E36B45
:1044E000236035E02369002B03D1281C211CFFF732
:1044F000C7F9A789BEB2B3070FD00123A381184B18
:1045000018491868FFF758F90923A7813340092B88
:1045100003D1281C211CFEF771FE2369281C1A1CDC
:104520002360216A6369656AA847021C60600020F5
:1045300082420DDCA389824204D120221343A3814D
:10454000013805E0402213436060A381012040420E
:10455000F8BDC046446A0008646A0008846A00081E
:10456000A86A00083144000838B5051C0C1C002856
:1045700004D08369002B01D1FEF784FF0F4B9C42CE
:1045800001D16C6808E00E4B9C4201D1AC6803E09D
:104590000C4B9C4200D1EC68281C211CFFF754FFF7
:1045A000002807D16368013B636023685A1C2260BE
:1045B000187801E00120404238BDC046446A000836
:1045C000646A0008846A000838B50023064C051C9C
:1045D000081C2360FDF78CFA431C03D12368002BD1
:1045E00000D02B6038BDC04698050020F0B50A7891
:1045F0005E2A02D04B1C002402E001244A788B1C66
:10460000011C451CFF350C700131A942FBD1002A69
:1046100001D1581E1CE001210C1BE7B28754197808
:104620005E1C2D2906D05D290FD000290FD00A1C51
:10463000331CF2E75D785D2DF9D09542F7DB02334C
:1046400001328754AA42FBDBE9E7301C00E0181C6A
:10465000F0BD08B54A424A4180235200DB0000F019
:1046600001F808BDF7B51E1C3C4B041C1D680F1C4F
:104670000192002D05D0AB69002B02D1281CFEF75A
:1046800001FF374B9C4201D16C6808E0354B9C42DE
:1046900001D1AC6803E0344B9C4200D1EC68019B33
:1046A000022B58D8002E56DB281C211CFEF730FEAA
:1046B00000236360A361A3891B0603D5281C21691D
:1046C000FFF78AF98322A3899343A381019B022BDD
:1046D00013D0002F25D1002E01D18026F600301CEA
:1046E000FFF726F9071E18D18020C000FFF720F938
:1046F000071E10D10120404200E000200222A389C1
:104700001343A3810023A360231C47332360236149
:104710000123636121E08026F6008022A3891343F0
:10472000A381019B012B05D1A389019A1A437342EE
:10473000A281A3610D4B0020AB62A2892760276193
:104740006661130709D503231A40534253415B4264
:104750001E40A66001E001204042FEBD3001002065
:10476000446A0008646A0008846A0008013400088A
:1047700038B51F2904D9162303600120404220E0E8
:10478000426C0D1C041C002A04D08B00D218136844
:10479000002B08D1201C00F031F82A1C011C201C21
:1047A00000F01AF80DE00020012B0AD0591C03D1AB
:1047B00017332360013004E00024281C146098475C
:1047C000201C38BD08B5034B011C1868FFF7D0FF4B
:1047D00008BDC0463001002038B50023064C051C3A
:1047E000081C111C236001F013FC431C03D1236837
:1047F000002B00D02B6038BD9805002008B501F0D3
:10480000FFFB08BD0EB410B59DB002A9029008616F
:104810000B48822488604861012040421FABC88158
:10482000084804CBA400006801938C8100F0E0FBF1
:104830000023029A13701DB010BC08BC03B01847C7
:10484000FFFFFF7F300100200EB4812370B59DB0C3
:1048500002AC21AD9B0040CDA3810290069000F0F8
:1048600073F80B4B6060636200236363A364013BD6
:10487000E381084B6061211C1868321C2B1C0195D8
:1048800000F008FD1DB070BC08BC03B01847C0465E
:10489000C14800083001002038B50C1C0E25495FC6
:1048A00000F070FE002803DB636D1B18636503E0F6
:1048B000A289024B1340A38138BDC046FFEFFFFF22
:1048C00000207047F8B51E1C8B89051C0C1C171C9A
:1048D000DB0505D50E23C95E0022022300F0EEFAA7
:1048E000A289054B281C1340A3813A1C0E23E15ECC
:1048F000331C00F0EDF9F8BDFFEFFFFF38B50C1CDD
:104900000E25495F00F0DAFAA389421C03D1054A5B
:104910001340A38104E0802252011343A381606508
:1049200038BDC046FFEFFFFF08B50E23C95E00F09B
:1049300057FA08BD02780B78002A03D00130013104
:104940009A42F7D0D01A70470023C25C0133002A84
:10495000FBD1581E7047002330B59A420DD0013A62
:10496000C45CCD5CAC4202D1934202D1251C631BD6
:1049700003E00133002CF3D1F8E7181C30BD000030
:10498000F0B51E1C444B87B01B68059002930B1CAE
:10499000039101921C78029A5D1C1219507808222A
:1049A000104001D02B1CF5E72D2C04D19D1C5C7808
:1049B0000123009304E000902B2C01D15C789D1C16
:1049C000002E02D0102E0AD160E0302C5CD12022C3
:1049D0002B789343582B52D110266C780235009FC8
:1049E000311C7B1E9F412D4BFF18381C00F07AFEB6
:1049F000381C0491311C00F0EFFD0022071C131C31
:104A0000029909194978480701D5303C07E003208D
:104A1000084017D03721012800D02031641AB44251
:104A200010DA511C0BD0BB4207D802D1049A944231
:104A300003DC73430122E31801E0012252422C7887
:104A40000135DDE7181C511C0BD10098059A431E57
:104A50009841124BC01822231360019B002B0AD1EE
:104A600017E00099002900D05842019B002B10D07C
:104A7000039B002A00D06B1E019A136009E03024CA
:104A8000002EACD10826AAE70A26A8E7302CA6D12A
:104A90009DE707B0F0BDC046CC000020FFFFFF7FC0
:104AA000F0B51E1C3E4B87B01B68171C02930B1CF5
:104AB000059004911C78029A5D1C12195178082205
:104AC0000A4001D02B1CF5E72D2C04D19D1C5C78ED
:104AD0000123019304E001922B2C01D15C789D1CF1
:104AE000002E02D0102E0AD154E0302C50D12022BA
:104AF0002B789343582B46D110266C780235012031
:104B0000311C404200F068FD03900120311C4042FE
:104B100000F0E8FD00228C46131C0299091949781F
:104B2000480701D5303C07E00320084017D0372163
:104B3000012800D02031641AB44210DA511C0BD085
:104B4000039A934206D801D1644503DC73430122E2
:104B5000E31801E0012252422C780135DDE7181CF0
:104B6000511C04D122230599101C0B6003E001990C
:104B7000002900D05842002F0FD0049B002A00D0FB
:104B80006B1E3B6009E03024002EB8D10826B6E742
:104B90000A26B4E7302CB2D1A9E707B0F0BDC04671
:104BA000CC0000200B1CF7B54D6B44330C1C9D4210
:104BB0001BD18026F600311CFEF754FF002802D1DD
:104BC0000120404225E0231C6063A66346331A7827
:104BD000104BC254231C45331A780F4BC2542A7809
:104BE0000E4BC254C018206012E08E6B291C73005B
:104BF0001A1C019300F076F9051EE1D08719381CC4
:104C0000291C321CFEF7C2FE019B27606563A3636B
:104C10000020FEBDFF030000FE030000FD030000B6
:104C200070B5051C0E1C141C002804D08369002BD1
:104C300001D1FEF727FC234B9C4201D16C6808E0B0
:104C4000214B9C4201D1AC6803E0204B9C4200D137
:104C5000EC68A369A360A3891B070AD52369002B0D
:104C600007D023682269F6B2981A636998420FDB6D
:104C700008E0281C211C00F03FF80028F1D001209A
:104C800040421DE0281C211CFEF742FB0028F6D103
:104C9000A3680130013BA36023685A1C22601E7088
:104CA0006369984205D0A389301CDB0708D50A2E1A
:104CB00006D1281C211CFEF72BFB0028DFD1301C5D
:104CC00070BDC046446A0008646A0008846A00082F
:104CD00038B5051C0020074C2060081C111C1A1C4C
:104CE000FCF770FE431C03D12368002B00D02B601F
:104CF00038BDC04698050020354B70B51D68061CB0
:104D00000C1C002D05D0AB69002B02D1281CFEF72E
:104D1000B9FB304B9C4201D16C6808E02E4B9C42A1
:104D200001D1AC6803E02D4B9C4200D1EC68A38913
:104D30009AB2110723D4D10607D409220120326088
:104D400037321343A381404240E0530713D5616BD0
:104D5000002908D0231C4433994202D0301CFEF7AE
:104D60003BFE002363632422A3899343A381002392
:104D70006360236923600822A3891343A381236905
:104D8000002B0BD1A023A2899B001340802292000C
:104D9000934203D0301C211CFEF772FD0123A2892F
:104DA000134005D00023A36063695B42A36103E065
:104DB000910700D46369A36000202369834205D171
:104DC000130603D540231A43A281013870BDC046A3
:104DD00030010020446A0008646A0008846A000800
:104DE00038B50023064C051C081C2360FCF7D4FDD5
:104DF000431C03D12368002B00D02B6038BDC04674
:104E0000980500200B7830B5722B0ED0772B07D089
:104E1000612B0ED182258420AD00012340001BE0D0
:104E2000C0250123ED00082016E0002504202B1CDE
:104E300012E01623036000201BE0622C11D0782CB6
:104E400012D02B2C08D10F3CA0430C3C20430D3C2E
:104E5000A3431C1C0223234301310C78002CECD10A
:104E600005E080246402F6E780242401F3E72B4365
:104E7000136030BD38B50023064C051C081C111CFE
:104E80002360FCF717FE431C03D12368002B00D0DE
:104E90002B6038BD9805002038B50023064C051C52
:104EA000081C2360FCF7DEFD431C03D12368002BA4
:104EB00000D02B6038BDC0469805002038B5051CD1
:104EC0000020074C2060081C111C1A1CFCF7DEFD9A
:104ED000431C03D12368002B00D02B6038BDC04693
:104EE00098050020F8B5061C0C1C151C002904D1DF
:104EF000111CFEF7B7FD041C18E0002A03D1FEF7D1
:104F00006BFD2C1C12E000F051FBA8420ED2301CAD
:104F1000291CFEF7A7FD071E07D0211C2A1CFEF73F
:104F200035FD301C211CFEF757FD3C1C201CF8BD34
:104F3000F0B58E6885B0071C0C1C03920193B34238
:104F400045D390238A89DB001A423DD003250969A5
:104F5000236801985B1A029363695D43EB0F5D1947
:104F6000029B6D1001331B189D4200D21D1C381C82
:104F700053050FD5291CFEF775FD061E13D0029AA6
:104F80002169FEF703FDA289184B134080221343C9
:104F9000A38111E02A1CFFF7A5FF061E0CD1381CC7
:104FA0002169FEF719FD0C23402201203B60A389F3
:104FB00040421343A38117E0029B2661F618266046
:104FC0006561019EED1AA560019BB34200D2019E6E
:104FD000321C20680399FEF7E2FC0020A3689B1BAB
:104FE000A36023689E19266005B0F0BD7FFBFFFF1C
:104FF000F0B59FB0029005938B890E1C171C1B0601
:1050000010D50B69002B0DD14021FEF72BFD306030
:105010003061002804D10C23029A01381360D0E0DB
:1050200040237361002306AD6B6120336B76103330
:10503000AB763C1C2378002B03D1E31B049312D0E6
:1050400003E0252BF9D00134F4E7049B0298311CCE
:105050003A1CFFF76DFF431C00D1ACE06A69049B6A
:10506000944663446B612378002B00D1A3E00122B6
:10507000002352426A6002A95432521801342B6054
:10508000EB60AB601370AB654F4F2178381C052285
:10509000FEF762FC002808D0C01B01278740381C9F
:1050A0002B68013418432860EEE72B68DA0604D534
:1050B0005322202102A8121811701A0704D5532276
:1050C0002B2102A81218117022782A2A01D0099BDC
:1050D0000EE0059A111D12680591002A01DB099264
:1050E00004E05242EA60022213432B60013409E0DB
:1050F0002278303A092A04D80A214B4301349B18FC
:10510000F6E7099323782E2B18D163782A2B09D13F
:10511000059B02341A1D1B680592002B0DDA012332
:105120005B420AE0002301342278303A092A04D88D
:105130000A214B4301349B18F6E70793234F21784C
:10514000381C0322FEF708FC002807D0C01B4027AC
:105150008740381C2B6801341843286021781C488C
:105160000622671C2976FEF7F7FB002812D0194BA0
:10517000002B06D10722059B073393430833059381
:1051800014E005AB00930298291C321C124B00E07E
:1051900000BF07E005AB00930298291C321C0E4BA0
:1051A000FEF76CFE0390039B013304D06B69039AF6
:1051B0009B186B613DE7B3890B985B0601D5012015
:1051C00040421FB0F0BDC046AC6A0008B26A000899
:1051D000B66A000800000000314F000838B5141C02
:1051E0004B1C02D10120404234E09389202293439A
:1051F000626BA381CDB26368002A0FD0A26B934289
:1052000006DA2368013B23601D70636801331FE0E9
:10521000211CFFF7C7FC0028F3D0E3E721692268CF
:10522000002909D08A4207D9511E0878A84203D123
:105230000133216063600DE02364231C4433636306
:105240000323A363231C4633E2631D702360012301
:10525000281C636038BD10B50C1C496B00290ED0AA
:10526000231C4433994201D0FEF7B6FB0020236C87
:1052700060636360834202D0E36B236009E02369CB
:1052800020222360002301206360A389404213434E
:10529000A38110BDF0B5B54C071CA54403930023B2
:1052A00086204893499305AB4A93BE2340000D1CCA
:1052B000019202A9AE4A5B000918CA50AD4A02A980
:1052C00004330918CA50019B1C78002C00D144E11A
:1052D000A94E33681B195A780823134023D06B68F2
:1052E000002B10DD2B6831681A788A185278120763
:1052F00015D5499A01330292013249926A682B60AE
:10530000013A6A60EBE78621C023490002AA5218DD
:105310005B00D358381C291C98470028E2D0019E16
:1053200001360196CFE7019A561C252C4FD14793A1
:10533000459353782A2B02D11A3B45930136341CEE
:1053400021780B1C303B092B09D8479B0134019372
:105350000A23019A5343303B59184791F0E7874E8F
:105360000322301CFEF7F8FA002808D0801B012623
:105370008640301C459B0134184301934590661CC0
:105380002478672C10D8652C00D384E05B2C5AD08D
:1053900005D8002C00D1E2E0252C18D07DE0632C4C
:1053A0005FD0642C46D078E0702C34D007D86E2CB7
:1053B0005FD041D8692C70D10023469341E0752C11
:1053C00038D0782C2DD0732C67D1022347E06B683E
:1053D000002B0EDD2B681A78A24200D0BDE001330D
:1053E0006A682B60499B013A019301336A604993D3
:1053F00097E78621C023490002AA52185B00D358C0
:10540000381C291C98470028E4D04898002800D070
:105410009FE00138A5E0459B01932023019A1343A7
:105420004593459B01938023019A9B001343459329
:10543000102302E00A2300E00823469304236E2C85
:105440000DDC03230BE0311C05A8FFF7CFF8459BCB
:10545000061C01934023019A1343459301234B9368
:105460001FE0459B01934023019A1343459300237A
:10547000F5E74599CB0600D553E7039B499AC80742
:1054800004D5191D03911B681A804AE7191D039161
:105490001B681A6045E70523E1E703234B930733B5
:1054A00046936B68002B04DD459B01935B0618D582
:1054B0001FE08621C023490002AA52185B00D3587E
:1054C000381C291C98470028EED09EE7499A019283
:1054D000013249926A68013A6A60002A13DD013399
:1054E0002B602B6824491A7809688A1852781207A9
:1054F000ECD44B9B022B13DC381C45A92A1C03ABB4
:10550000FEF7D4FD1FE08621C023490002AA5218ED
:105510005B00D358381C291C98470028E1D074E759
:10552000042B06DC381C45A92A1C03ABFEF71CFE25
:1055300009E0134B002B00D1F3E6381C45A92A1CC7
:1055400003AB00E000BF012807D0022800D0E8E646
:105550005BE7AB895B0604D501E0489801E00120D8
:105560004042A7239B009D44F0BDC04664FDFFFF61
:10557000DD51000857520008CC000020B26A000834
:105580000000000038B5051C0020074C2060081CF6
:10559000111C1A1CFCF742FA431C03D12368002B90
:1055A00000D02B6038BDC046980500200B1F1A683C
:1055B000101F002A04DA891804390B68D01804383F
:1055C0007047000002B4714649084900095C49006F
:1055D0008E4402BC7047C046002243088B4274D3FD
:1055E00003098B425FD3030A8B4244D3030B8B42E4
:1055F00028D3030C8B420DD3FF22090212BA030CED
:105600008B4202D31212090265D0030B8B4219D3CD
:1056100000E0090AC30B8B4201D3CB03C01A5241ED
:10562000830B8B4201D38B03C01A5241430B8B4235
:1056300001D34B03C01A5241030B8B4201D30B031E
:10564000C01A5241C30A8B4201D3CB02C01A524145
:10565000830A8B4201D38B02C01A5241430A8B4208
:1056600001D34B02C01A5241030A8B4201D30B02F1
:10567000C01A5241CDD2C3098B4201D3CB01C01A0B
:10568000524183098B4201D38B01C01A5241430915
:105690008B4201D34B01C01A524103098B4201D303
:1056A0000B01C01A5241C3088B4201D3CB00C01A70
:1056B000524183088B4201D38B00C01A52414308E8
:1056C0008B4201D34B00C01A5241411A00D201460D
:1056D000524110467047FFE701B5002000F00CF87A
:1056E00002BDC0460029F7D003B5FFF775FF0EBC19
:1056F0004243891A1847C0467047C0468446101C6A
:1057000062468C46191C634600E0C0461FB500F097
:10571000E7F8002801D40021C8421FBD10B500F0F1
:105720002BF84042013010BD10B500F0D9F8002828
:1057300001DB002010BD012010BDC04610B500F0F7
:10574000CFF8002801DD002010BD012010BDC046AB
:1057500010B500F055F8002801DC002010BD012034
:1057600010BDC04610B500F04BF8002801DA00204B
:1057700010BD012010BDC046F0B55F464D46444601
:105780005646F0B41F035C00DB0F99461B4B0E031B
:105790004D00C90F8446360B6D0D8B4690463F0B6E
:1057A000640D9D420CD0154B9C4210D00123A542A4
:1057B00014D0181C3CBC90469946A246AB46F0BD9E
:1057C000311C01230143F4D10C4B9C42EED13A43EE
:1057D0000123002AEDD10123A542EAD1BE42E8D13E
:1057E000C445E6D1CB4506D0002DE2D13043031CA1
:1057F000581E8341DDE70023DBE7C046FF070000BA
:10580000F0B5574645464E46E0B40F034E00C90F6B
:105810008A4632491D035C0084463F0B760D904654
:105820002D0B640DDB0F8E420FD08C4239D0002E31
:1058300010D13843414241418946002C27D12A43A7
:1058400025D1002000290ED108E0391C01432ED1BA
:10585000B44226D0002C0BD09A450DD05346594265
:1058600001231943081C1CBC90469946A246F0BD72
:105870002A43F3D09A45F1D1A642EFDC1ADA50461A
:1058800041424841012341421943081CEBE74A4683
:10589000002AE1D058425841012241421143081CDC
:1058A000E1E7291C114302D1002EC2D0D4E7022027
:1058B0004042D8E7AF42D1D809D00020AF42D2D27F
:1058C000504641424841012340421843CBE7C4457A
:1058D000C4D80020C445F3D3C5E7C046FF07000085
:1058E000F0B55F464D46444656468046F0B4061C29
:1058F0000803000B84462C484C001F035D00C90FB1
:10590000640D8B4691463F0B6D0DDB0F844212D028
:10591000854225D0002C14D161460E437042464189
:10592000002D35D0002E21D058425841012143424C
:105930000B43181C0EE06146022031430AD1A542F8
:105940000ED0002D12D13A4310D15B4659420123AB
:105950001943081C3CBC90469946A246AB46F0BD94
:10596000391C02201143F5D1002CD5D09B45ECD138
:10597000AC42EADC05DBBC45E7D80FD00020BC45D3
:10598000E8D2584641424841414201200843E1E7FC
:105990003A43C7D10020002EDCD1D6E7C845D4D881
:1059A0000020C845EDD3D5E7FF070000F0B55F46FE
:1059B00056464D464446F0B4051C061C080387B005
:1059C00099464F00030BCC0F92469B467F0D0194E6
:1059D00067D06C4B9F4236D080205B464003184313
:1059E000C0006B0F1843684B83469C4600239846C3
:1059F000EE00674400934B4649461D03C90F5B0008
:105A000052462D0B5B0D894600D16EE05D498B42FD
:105A100064D080205C4940038C4600210543ED00A2
:105A2000500F0543D20063444846FF187B1C9A463A
:105A3000009B604002900B430F2B00D9ACE0534811
:105A40009B00C3589F465B461D4300D082E008235D
:105A5000009300239B46023300269846CBE7029B27
:105A600001934346022B59D1012400250026019BB6
:105A70001C40444B00212D030A0D12052D0B15432C
:105A8000434A1B0515401D436D00E4076D0825437F
:105A9000301C291C07B03CBC90469946A246AB4638
:105AA000F0BD2B434ED05B46002B00D185E158461C
:105AB00000F088FA021C2823291C9B1A161C584641
:105AC000D940083EB0400B1CB54003439B462E1CFA
:105AD0000023304F0093BF1A98468CE75146294364
